{
    "_format": "hh-sol-artifact-1",
    "contractName": "SupplyChain",
    "sourceName": "contracts/SupplyChain.sol",
    "abi": [
        {
            "inputs": [],
            "stateMutability": "nonpayable",
            "type": "constructor"
        },
        {
            "anonymous": false,
            "inputs": [
                {
                    "indexed": false,
                    "internalType": "address",
                    "name": "newOwner",
                    "type": "address"
                }
            ],
            "name": "OwnershipTransferred",
            "type": "event"
        },
        {
            "anonymous": false,
            "inputs": [
                {
                    "indexed": false,
                    "internalType": "uint256",
                    "name": "productId",
                    "type": "uint256"
                },
                {
                    "indexed": false,
                    "internalType": "string",
                    "name": "name",
                    "type": "string"
                },
                {
                    "indexed": false,
                    "internalType": "uint256",
                    "name": "quantity",
                    "type": "uint256"
                },
                {
                    "indexed": false,
                    "internalType": "address",
                    "name": "producer",
                    "type": "address"
                },
                {
                    "indexed": false,
                    "internalType": "address",
                    "name": "distributor",
                    "type": "address"
                },
                {
                    "indexed": false,
                    "internalType": "address",
                    "name": "retailer",
                    "type": "address"
                }
            ],
            "name": "ProductCreated",
            "type": "event"
        },
        {
            "anonymous": false,
            "inputs": [
                {
                    "indexed": false,
                    "internalType": "uint256",
                    "name": "productId",
                    "type": "uint256"
                },
                {
                    "indexed": false,
                    "internalType": "uint256",
                    "name": "newQuantity",
                    "type": "uint256"
                }
            ],
            "name": "QuantityUpdated",
            "type": "event"
        },
        {
            "anonymous": false,
            "inputs": [
                {
                    "indexed": false,
                    "internalType": "uint256",
                    "name": "productId",
                    "type": "uint256"
                },
                {
                    "indexed": false,
                    "internalType": "enum SupplyChain.State",
                    "name": "newState",
                    "type": "uint8"
                }
            ],
            "name": "StateChanged",
            "type": "event"
        },
        {
            "inputs": [
                {
                    "internalType": "uint256",
                    "name": "_productId",
                    "type": "uint256"
                },
                {
                    "internalType": "enum SupplyChain.State",
                    "name": "_newState",
                    "type": "uint8"
                }
            ],
            "name": "changeState",
            "outputs": [],
            "stateMutability": "nonpayable",
            "type": "function"
        },
        {
            "inputs": [
                {
                    "internalType": "string",
                    "name": "_name",
                    "type": "string"
                },
                {
                    "internalType": "uint256",
                    "name": "_quantity",
                    "type": "uint256"
                },
                {
                    "internalType": "address",
                    "name": "_producer",
                    "type": "address"
                },
                {
                    "internalType": "address",
                    "name": "_distributor",
                    "type": "address"
                },
                {
                    "internalType": "address",
                    "name": "_retailer",
                    "type": "address"
                }
            ],
            "name": "createProduct",
            "outputs": [],
            "stateMutability": "nonpayable",
            "type": "function"
        },
        {
            "inputs": [],
            "name": "currentState",
            "outputs": [
                {
                    "internalType": "enum SupplyChain.State",
                    "name": "",
                    "type": "uint8"
                }
            ],
            "stateMutability": "view",
            "type": "function"
        },
        {
            "inputs": [
                {
                    "internalType": "uint256",
                    "name": "_productId",
                    "type": "uint256"
                }
            ],
            "name": "getProductDetails",
            "outputs": [
                {
                    "internalType": "string",
                    "name": "",
                    "type": "string"
                },
                {
                    "internalType": "uint256",
                    "name": "",
                    "type": "uint256"
                },
                {
                    "internalType": "address",
                    "name": "",
                    "type": "address"
                },
                {
                    "internalType": "address",
                    "name": "",
                    "type": "address"
                },
                {
                    "internalType": "address",
                    "name": "",
                    "type": "address"
                }
            ],
            "stateMutability": "view",
            "type": "function"
        },
        {
            "inputs": [],
            "name": "owner",
            "outputs": [
                {
                    "internalType": "address",
                    "name": "",
                    "type": "address"
                }
            ],
            "stateMutability": "view",
            "type": "function"
        },
        {
            "inputs": [],
            "name": "productId",
            "outputs": [
                {
                    "internalType": "uint256",
                    "name": "",
                    "type": "uint256"
                }
            ],
            "stateMutability": "view",
            "type": "function"
        },
        {
            "inputs": [
                {
                    "internalType": "uint256",
                    "name": "",
                    "type": "uint256"
                }
            ],
            "name": "products",
            "outputs": [
                {
                    "internalType": "string",
                    "name": "name",
                    "type": "string"
                },
                {
                    "internalType": "uint256",
                    "name": "quantity",
                    "type": "uint256"
                },
                {
                    "internalType": "address",
                    "name": "producer",
                    "type": "address"
                },
                {
                    "internalType": "address",
                    "name": "distributor",
                    "type": "address"
                },
                {
                    "internalType": "address",
                    "name": "retailer",
                    "type": "address"
                }
            ],
            "stateMutability": "view",
            "type": "function"
        },
        {
            "inputs": [
                {
                    "internalType": "address",
                    "name": "_newOwner",
                    "type": "address"
                }
            ],
            "name": "transferOwnership",
            "outputs": [],
            "stateMutability": "nonpayable",
            "type": "function"
        },
        {
            "inputs": [
                {
                    "internalType": "uint256",
                    "name": "_productId",
                    "type": "uint256"
                },
                {
                    "internalType": "uint256",
                    "name": "_newQuantity",
                    "type": "uint256"
                }
            ],
            "name": "updateQuantity",
            "outputs": [],
            "stateMutability": "nonpayable",
            "type": "function"
        }
    ],
    "bytecode": "0x608060405234801561001057600080fd5b50336000806101000a81548173ffffffffffffffffffffffffffffffffffffffff021916908373ffffffffffffffffffffffffffffffffffffffff1602179055506115a4806100606000396000f3fe608060405234801561001057600080fd5b50600436106100935760003560e01c806379cd49211161006657806379cd4921146101225780637acc0b201461013e5780638da5cb5b14610172578063c5ce391114610190578063f2fde38b146101ae57610093565b80630c3f6acf146100985780635e569797146100b65780636813b53b146100d25780636e63064914610106575b600080fd5b6100a06101ca565b6040516100ad9190610b95565b60405180910390f35b6100d060048036038101906100cb9190610d9e565b6101dd565b005b6100ec60048036038101906100e79190610e35565b61046e565b6040516100fd959493929190610eff565b60405180910390f35b610120600480360381019061011b9190610f7e565b6105a5565b005b61013c60048036038101906101379190610fbe565b610741565b005b61015860048036038101906101539190610e35565b6108ce565b604051610169959493929190610eff565b60405180910390f35b61017a6109ec565b6040516101879190610ffe565b60405180910390f35b610198610a10565b6040516101a59190611019565b60405180910390f35b6101c860048036038101906101c39190611034565b610a16565b005b600260009054906101000a900460ff1681565b60008054906101000a900473ffffffffffffffffffffffffffffffffffffffff1673ffffffffffffffffffffffffffffffffffffffff163373ffffffffffffffffffffffffffffffffffffffff161461026b576040517f08c379a0000000000000000000000000000000000000000000000000000000008152600401610262906110d3565b60405180910390fd5b6001600081548092919061027e90611122565b91905055506040518060a001604052808681526020018581526020018473ffffffffffffffffffffffffffffffffffffffff1681526020018373ffffffffffffffffffffffffffffffffffffffff1681526020018273ffffffffffffffffffffffffffffffffffffffff1681525060036000600154815260200190815260200160002060008201518160000190816103169190611376565b506020820151816001015560408201518160020160006101000a81548173ffffffffffffffffffffffffffffffffffffffff021916908373ffffffffffffffffffffffffffffffffffffffff16021790555060608201518160030160006101000a81548173ffffffffffffffffffffffffffffffffffffffff021916908373ffffffffffffffffffffffffffffffffffffffff16021790555060808201518160040160006101000a81548173ffffffffffffffffffffffffffffffffffffffff021916908373ffffffffffffffffffffffffffffffffffffffff1602179055509050506000600260006101000a81548160ff0219169083600281111561041f5761041e610b1e565b5b02179055507fb0ba2d884297c8817b272ce04021629c21bcfca0ce6d7be52887ac2b745987ba600154868686868660405161045f96959493929190611448565b60405180910390a15050505050565b606060008060008060006003600088815260200190815260200160002090508060000181600101548260020160009054906101000a900473ffffffffffffffffffffffffffffffffffffffff168360030160009054906101000a900473ffffffffffffffffffffffffffffffffffffffff168460040160009054906101000a900473ffffffffffffffffffffffffffffffffffffffff1684805461051190611199565b80601f016020809104026020016040519081016040528092919081815260200182805461053d90611199565b801561058a5780601f1061055f5761010080835404028352916020019161058a565b820191906000526020600020905b81548152906001019060200180831161056d57829003601f168201915b50505050509450955095509550955095505091939590929450565b60008054906101000a900473ffffffffffffffffffffffffffffffffffffffff1673ffffffffffffffffffffffffffffffffffffffff163373ffffffffffffffffffffffffffffffffffffffff1614610633576040517f08c379a000000000000000000000000000000000000000000000000000000000815260040161062a906110d3565b60405180910390fd5b81600073ffffffffffffffffffffffffffffffffffffffff166003600083815260200190815260200160002060020160009054906101000a900473ffffffffffffffffffffffffffffffffffffffff1673ffffffffffffffffffffffffffffffffffffffff16036106d9576040517f08c379a00000000000000000000000000000000000000000000000000000000081526004016106d0906114fc565b60405180910390fd5b81600260006101000a81548160ff021916908360028111156106fe576106fd610b1e565b5b02179055507ffafe884515ca1fa5e0bf815ce87ef00b2cdaa0eee590d20376604937937a10bf838360405161073492919061151c565b60405180910390a1505050565b60008054906101000a900473ffffffffffffffffffffffffffffffffffffffff1673ffffffffffffffffffffffffffffffffffffffff163373ffffffffffffffffffffffffffffffffffffffff16146107cf576040517f08c379a00000000000000000000000000000000000000000000000000000000081526004016107c6906110d3565b60405180910390fd5b81600073ffffffffffffffffffffffffffffffffffffffff166003600083815260200190815260200160002060020160009054906101000a900473ffffffffffffffffffffffffffffffffffffffff1673ffffffffffffffffffffffffffffffffffffffff1603610875576040517f08c379a000000000000000000000000000000000000000000000000000000000815260040161086c906114fc565b60405180910390fd5b8160036000858152602001908152602001600020600101819055507f8b8dc02fa611075efc1241daba0e953699ed8b00d177cc4cd5ffe82696af2c0983836040516108c1929190611545565b60405180910390a1505050565b60036020528060005260406000206000915090508060000180546108f190611199565b80601f016020809104026020016040519081016040528092919081815260200182805461091d90611199565b801561096a5780601f1061093f5761010080835404028352916020019161096a565b820191906000526020600020905b81548152906001019060200180831161094d57829003601f168201915b5050505050908060010154908060020160009054906101000a900473ffffffffffffffffffffffffffffffffffffffff16908060030160009054906101000a900473ffffffffffffffffffffffffffffffffffffffff16908060040160009054906101000a900473ffffffffffffffffffffffffffffffffffffffff16905085565b60008054906101000a900473ffffffffffffffffffffffffffffffffffffffff1681565b60015481565b60008054906101000a900473ffffffffffffffffffffffffffffffffffffffff1673ffffffffffffffffffffffffffffffffffffffff163373ffffffffffffffffffffffffffffffffffffffff1614610aa4576040517f08c379a0000000000000000000000000000000000000000000000000000000008152600401610a9b906110d3565b60405180910390fd5b806000806101000a81548173ffffffffffffffffffffffffffffffffffffffff021916908373ffffffffffffffffffffffffffffffffffffffff1602179055507f04dba622d284ed0014ee4b9a6a68386be1a4c08a4913ae272de89199cc68616381604051610b139190610ffe565b60405180910390a150565b7f4e487b7100000000000000000000000000000000000000000000000000000000600052602160045260246000fd5b60038110610b5e57610b5d610b1e565b5b50565b6000819050610b6f82610b4d565b919050565b6000610b7f82610b61565b9050919050565b610b8f81610b74565b82525050565b6000602082019050610baa6000830184610b86565b92915050565b6000604051905090565b600080fd5b600080fd5b600080fd5b600080fd5b6000601f19601f8301169050919050565b7f4e487b7100000000000000000000000000000000000000000000000000000000600052604160045260246000fd5b610c1782610bce565b810181811067ffffffffffffffff82111715610c3657610c35610bdf565b5b80604052505050565b6000610c49610bb0565b9050610c558282610c0e565b919050565b600067ffffffffffffffff821115610c7557610c74610bdf565b5b610c7e82610bce565b9050602081019050919050565b82818337600083830152505050565b6000610cad610ca884610c5a565b610c3f565b905082815260208101848484011115610cc957610cc8610bc9565b5b610cd4848285610c8b565b509392505050565b600082601f830112610cf157610cf0610bc4565b5b8135610d01848260208601610c9a565b91505092915050565b6000819050919050565b610d1d81610d0a565b8114610d2857600080fd5b50565b600081359050610d3a81610d14565b92915050565b600073ffffffffffffffffffffffffffffffffffffffff82169050919050565b6000610d6b82610d40565b9050919050565b610d7b81610d60565b8114610d8657600080fd5b50565b600081359050610d9881610d72565b92915050565b600080600080600060a08688031215610dba57610db9610bba565b5b600086013567ffffffffffffffff811115610dd857610dd7610bbf565b5b610de488828901610cdc565b9550506020610df588828901610d2b565b9450506040610e0688828901610d89565b9350506060610e1788828901610d89565b9250506080610e2888828901610d89565b9150509295509295909350565b600060208284031215610e4b57610e4a610bba565b5b6000610e5984828501610d2b565b91505092915050565b600081519050919050565b600082825260208201905092915050565b60005b83811015610e9c578082015181840152602081019050610e81565b60008484015250505050565b6000610eb382610e62565b610ebd8185610e6d565b9350610ecd818560208601610e7e565b610ed681610bce565b840191505092915050565b610eea81610d0a565b82525050565b610ef981610d60565b82525050565b600060a0820190508181036000830152610f198188610ea8565b9050610f286020830187610ee1565b610f356040830186610ef0565b610f426060830185610ef0565b610f4f6080830184610ef0565b9695505050505050565b60038110610f6657600080fd5b50565b600081359050610f7881610f59565b92915050565b60008060408385031215610f9557610f94610bba565b5b6000610fa385828601610d2b565b9250506020610fb485828601610f69565b9150509250929050565b60008060408385031215610fd557610fd4610bba565b5b6000610fe385828601610d2b565b9250506020610ff485828601610d2b565b9150509250929050565b60006020820190506110136000830184610ef0565b92915050565b600060208201905061102e6000830184610ee1565b92915050565b60006020828403121561104a57611049610bba565b5b600061105884828501610d89565b91505092915050565b7f4f6e6c79206f776e65722063616e2063616c6c20746869732066756e6374696f60008201527f6e00000000000000000000000000000000000000000000000000000000000000602082015250565b60006110bd602183610e6d565b91506110c882611061565b604082019050919050565b600060208201905081810360008301526110ec816110b0565b9050919050565b7f4e487b7100000000000000000000000000000000000000000000000000000000600052601160045260246000fd5b600061112d82610d0a565b91507fffffffffffffffffffffffffffffffffffffffffffffffffffffffffffffffff820361115f5761115e6110f3565b5b600182019050919050565b7f4e487b7100000000000000000000000000000000000000000000000000000000600052602260045260246000fd5b600060028204905060018216806111b157607f821691505b6020821081036111c4576111c361116a565b5b50919050565b60008190508160005260206000209050919050565b60006020601f8301049050919050565b600082821b905092915050565b60006008830261122c7fffffffffffffffffffffffffffffffffffffffffffffffffffffffffffffffff826111ef565b61123686836111ef565b95508019841693508086168417925050509392505050565b6000819050919050565b600061127361126e61126984610d0a565b61124e565b610d0a565b9050919050565b6000819050919050565b61128d83611258565b6112a16112998261127a565b8484546111fc565b825550505050565b600090565b6112b66112a9565b6112c1818484611284565b505050565b5b818110156112e5576112da6000826112ae565b6001810190506112c7565b5050565b601f82111561132a576112fb816111ca565b611304846111df565b81016020851015611313578190505b61132761131f856111df565b8301826112c6565b50505b505050565b600082821c905092915050565b600061134d6000198460080261132f565b1980831691505092915050565b6000611366838361133c565b9150826002028217905092915050565b61137f82610e62565b67ffffffffffffffff81111561139857611397610bdf565b5b6113a28254611199565b6113ad8282856112e9565b600060209050601f8311600181146113e057600084156113ce578287015190505b6113d8858261135a565b865550611440565b601f1984166113ee866111ca565b60005b82811015611416578489015182556001820191506020850194506020810190506113f1565b86831015611433578489015161142f601f89168261133c565b8355505b6001600288020188555050505b505050505050565b600060c08201905061145d6000830189610ee1565b818103602083015261146f8188610ea8565b905061147e6040830187610ee1565b61148b6060830186610ef0565b6114986080830185610ef0565b6114a560a0830184610ef0565b979650505050505050565b7f50726f6475637420646f6573206e6f7420657869737400000000000000000000600082015250565b60006114e6601683610e6d565b91506114f1826114b0565b602082019050919050565b60006020820190508181036000830152611515816114d9565b9050919050565b60006040820190506115316000830185610ee1565b61153e6020830184610b86565b9392505050565b600060408201905061155a6000830185610ee1565b6115676020830184610ee1565b939250505056fea26469706673582212203735ebf6635eb0974c2cd709dae46a4d1504edc3d339ebd9ea6e303b2a07e14b64736f6c63430008180033",
    "linkReferences": {},
    "deployedLinkReferences": {}
}